:020000040800F2
:10000000FCFF002001280000F9270000F92700006C
:10001000F9270000F9270000F9270000F927000060
:10002000F9270000F9270000F9270000F927000050
:10003000F9270000F9270000F9270000F927000040
:10004000F9270000F9270000F9270000F927000030
:10005000F9270000F9270000F9270000F927000020
:10006000F9270000F9270000F9270000F927000010
:10007000F9270000F9270000F9270000F927000000
:10008000F9270000F9270000F9270000F9270000F0
:10009000F9270000F9270000F9270000F9270000E0
:1000A000F9270000F9270000F9270000F9270000D0
:1000B000F9270000F9270000F9270000F9270000C0
:1000C000F9270000F9270000F9270000F9270000B0
:1000D000F9270000F9270000F9270000F9270000A0
:1000E000F9270000F9270000F9270000F927000090
:1000F000F9270000F9270000F9270000F927000080
:10010000F9270000F9270000F9270000F92700006F
:10011000F9270000F9270000F9270000F92700005F
:10012000F9270000F9270000F9270000F92700004F
:10013000F9270000F9270000F9270000F92700003F
:10014000F9270000F9270000F9270000F92700002F
:1001500081B000F218010A68C2F3400181F0010188
:10016000C9B2C8B201B0704781B000F214010A6888
:1001700000F218010968090442EA0101084601B0C9
:100180007047FFFF83B0CDF800E000F0FF031A09CD
:10019000104603F00F02134614E0194A02921FE0C2
:1001A000184A02921CE0184A029219E0174A029279
:1001B00016E0174A029213E0164A029210E0164A1D
:1001C00002920DE00028E8D00128E9D00228EAD008
:1001D0000328EBD00428ECD00528EDD00628EED07B
:1001E000012212B29A40ADF8042002980A46BDF8E6
:1001F000041000F0DDFEDDF800E003B0704700BF42
:1002000000080140000C01400010014000140140B2
:1002100000180140001C01400020014081B002484C
:10022000006801B0704700BF6800002081B0CDF8C1
:1002300000E00B46FFF798FF00EA03029A4240F203
:10024000000200D10122D0B2DDF800E001B0704719
:1002500081B0CDF800E04FF000021949884207D183
:1002600018490B6818490A6818490A601C460BE0CF
:100270001749884207D117490B6817490A6813497B
:100280000A601C4600E0144614490C6003461846F8
:10029000FFF75EFF70B91149096851B12CB905200B
:1002A0000A4C2468A047002005E0611E0846044669
:1002B000FFE7ECE70120DDF800E001B0704700BF88
:1002C0000054004038000020700000206C00002026
:1002D000005800403C000020740000204000002036
:1002E00082B0CDF800E0034619460191FFF796FF72
:1002F00040F2E83100FB01F201990A601F490978D8
:10030000C1F30311C8B21E4909180878C0B21A1DFA
:100310001968C140116019490988C1F3022188B2E6
:10032000174909180878C0B203F20802191D0968B4
:10033000C140116011490988C1F3C22188B2104936
:1003400009180878C0B203F20C02191D0968C140EF
:1003500011600A490988C1F3813188B20949091835
:100360000978C8B203F2100203F20C010968B1FB6C
:10037000F0F11160DDF800E002B0704704100240B7
:10038000D22B0000F82B000081B00168C1F380106F
:1003900001B0704782B0CDF800E0029E4FF000053A
:1003A000564CA04206D1564C2768564C2568564CF0
:1003B00025600AE0554CA04206D1554C2768554CA3
:1003C0002568514C256000E02F46534C276000F211
:1003D00010054C00A4B22C60B9460746904635463D
:1003E0001E464E493846FFF721FF88B94A4C24681B
:1003F0006CB1B9F1000F06D10420434C2468A0472A
:100400004FF6FF7076E0A9F101008146FFE7E8E7CB
:100410000020019729463746019E7C1EA04226D225
:1004200006F2100508EB000424782C603A4CD4F84E
:10043000009082460D463A493046FFF7F7FE88B9EC
:10044000354C24686CB1B9F1000F06D104202E4C54
:100450002468A0474FF6FF704CE0A9F101008146E7
:10046000FFE7E8E70AF1010420462946D5E706F24E
:10047000100508EB000424782C60274C27680D46F3
:1004800028493046FFF7D2FE70B9234C246854B196
:1004900037B904201C4C2468A0474FF6FF7029E0B0
:1004A000781E0746FFE7EBE7012D05D101253468EB
:1004B00065F3492434601CE00125346865F30824A1
:1004C0003460154C2768354617492846FFF7AEFEBD
:1004D00078B9114C24685CB137B904200A4C2468FF
:1004E000A0474FF6FF7005E07C1E20460746FFE759
:1004F000EAE70020DDF800E002B070470054004059
:1005000038000020700000206C00002000580040DF
:100510003C00002074000020400000208200070002
:1005200080000700840007000100030082B0CDF8BE
:1005300000E0CFB201469846029B4FF000064FF014
:100540000005C44CA14207D1C34CD4F80090C34C61
:100550002568C34C25600BE0C24CA14207D1C24CB8
:100560002068C24C2568BE4C2560814600E0A94643
:10057000BF4CC4F80090F4E101F210057C00A4B275
:1005800044F00104A4B22C60019616464F46019A2D
:1005900001F214042568C5F3400464B9B44C24681E
:1005A00044B127B90320AE4C2468A047E2E1781E8D
:1005B0000746FFE7ECE700250C6865F38A240C602A
:1005C00001F21404206800BF01F218042468240416
:1005D00040EA04042046012B05D101250C6865F38F
:1005E00049240C6004E001250C6865F308240C60C4
:1005F0009F4C25689146984637460E469D493046A1
:10060000FFF714FE68B99A4C24684CB125B9032051
:10061000934C2468A047ADE16C1E20460546FFE7D9
:10062000ECE707EB090506F2100424682C70B8F11A
:10063000010F13D18E4C216830460568C5F3402464
:100640005CB98B4C24683CB121B90320844C2468EC
:10065000A0478FE1491EFFE7EFE712E0844C2168D5
:1006600030460568C5F300245CB9814C24683CB170
:1006700021B903207A4C2468A0477BE1491EFFE79B
:10068000EFE777E101250C6865F38A240C6001250A
:100690000C6865F3CB240C6001F210057C00A4B259
:1006A00044F00104A4B22C604F4601F21404256802
:1006B000C5F3400464B96E4C246844B127B90320E3
:1006C000674C2468A04755E1781E0746FFE7ECE732
:1006D00001F21404206800BF01F218042468240405
:1006E000204300250C6865F38A240C60604C276861
:1006F00001F214042568C5F3800464B95C4C2468D5
:1007000044B127B90320564C2468A04732E1781E33
:100710000746FFE7ECE7012B05D101250C6865F3DF
:1007200049240C6004E001250C6865F308240C6082
:10073000951901F2100424682C70741C151901F22B
:10074000100424682C70012B14D1494C22680D68C8
:10075000C5F3402464B9464C246844B122B903204F
:100760003F4C2468A04705E1501E0246FFE7EEE734
:10077000084613E03E4C22680D68C5F3002464B9B6
:100780003B4C246844B122B90320354C2468A0476F
:10079000F0E0501E0246FFE7EEE708460025046839
:1007A00065F3CB240460E5E001250C6865F38A2439
:1007B0000C6001F210057C00A4B244F00104A4B264
:1007C0002C604646C846894617461D462A49484673
:1007D000FFF72CFD78B9264C24685CB1B8F1000F06
:1007E00004D103201E4C2468A047C3E0A8F10100F7
:1007F0008046FFE7EAE70021A8464A46B1463B4665
:10080000A9F10304A14222D2194C25688A46174651
:100810001E4618493846FFF709FD60B9144C246894
:1008200044B125B903200E4C2468A047A2E0681EFD
:100830000546FFE7EDE706EB0A0507F2100424681A
:100840002C700AF10104214633463A46D8E7084C99
:1008500000F014B800540040380000207000002060
:100860006C000020005800403C0000207400002074
:1008700040000020400003000200030027680193AD
:100880000B4616464246019906F214042568C5F344
:10089000800464B9394C246844B127B90320384C2A
:1008A0002468A04766E0781E0746FFE7ECE70025CE
:1008B000346865F38A243460CD1806F21004246885
:1008C0002C70581C2D4C23681746024606F214045F
:1008D0002568C5F3800464B9284C246844B123B961
:1008E0000320274C2468A04744E0581E0346FFE736
:1008F000ECE7012F07D10125346865F34924346002
:100900001046324621E00125346865F3082434603E
:100910001A4CD4F8008017460D461A493046FFF7A6
:1009200085FC78B9154C24685CB1B8F1000F04D18E
:100930000320134C2468A0471CE0A8F10100804666
:10094000FFE7EAE72946324638460D1802F210045E
:1009500024682C70441C0D1902F2100424682C70B9
:1009600008E0B8F1010F3FF407AEB8F1020F3FF411
:1009700089AE19E7DDF800E002B0704740000020C2
:100980006C0000200100030081B0CDF800E00122DE
:1009900052B23E490A6000F268010B686FF00061D4
:1009A00003EA0102144603F00061C90E0B4602F08F
:1009B0000041B1F1004F02D135490A6801E03549E3
:1009C0000A6804F47021090C0E464FF6FF7104EA20
:1009D00001010D4604F44011B1F5401F0DD16FF037
:1009E000706102EA01010E462A490A686FF07061DF
:1009F0000A4028490A60324616E004F48011B1F535
:100A0000801F09D14FF00301B140C94302EA01013F
:100A100041F070610A4607E0610D090105FA01F134
:100A2000C9430A4042F070622BB1610D090105FA19
:100A300001F10A43FFE704F00041B1F1004F02D198
:100A400013490A6001E013490A6040F2000A814636
:100A50004FEA8A0109EB01010968B1F1FF3F10D0AB
:100A600009F134014FEA8A03C91809680A4609EBFB
:100A70000301096808461146FFF784FB0AF1010AE1
:100A8000E6E7DDF800E001B0704700BF0003424236
:100A90001C0001400400014081B00168C1F3401016
:100AA00001B0704781B00268C2F3401101B9FAE7A2
:100AB000011D096888B201B07047FFFF81B0194974
:100AC00000EA0101084600220EE0042022E008208E
:100AD00020E010201EE020201CE040201AE08020B2
:100AE00018E040F2001015E00F498842EDD00F49A0
:100AF0008842ECD00E498842EBD00E498842EAD0B9
:100B00000D498842E9D00D498842E8D00C49884215
:100B1000E7D010460B49096841EA000209490A601A
:100B200001B0704700FCFFFF00080140000C0140CD
:100B3000001001400014014000180140001C014059
:100B4000002001401810024083B0CDF800E00346B9
:100B50004FF0000026498B4206D126490C682649F1
:100B60000A6826490A600BE025498B4207D12549CE
:100B7000086825490A6821490A60044600E00446DD
:100B800022490C60019402931846FFF761FB029B17
:100B9000019C10B94FF6FF7025E00122196862F33D
:100BA0000821196003F214010A68C2F3402111B14F
:100BB0004FF6FF7017E025461C4615492046FFF703
:100BC00035FB78B91149096859B135B906200B4C84
:100BD0002468A0474FF6FF7005E0691E08460546E9
:100BE000FFE7EAE70020DDF800E003B0704700BF50
:100BF0000054004038000020700000206C000020ED
:100C0000005800403C0000207400002040000020FC
:100C10000100030081B0CDF800E00348FFF73CFF7E
:100C2000DDF800E001B07047004C004081B0CDF825
:100C300000E00348FFF7A8FBDDF800E001B07047D3
:100C40000048004081B0CDF800E00348FFF72AFFDC
:100C5000DDF800E001B07047004C004081B0CDF8F5
:100C600000E00348FFF790FBDDF800E001B07047BB
:100C7000004C004081B0CDF800E00348FFF70CFFC6
:100C8000DDF800E001B070470050004081B0CDF8C1
:100C900000E00348FFF778FBDDF800E001B07047A3
:100CA0000050004081B0CDF800E00348FFF74CFF52
:100CB000DDF800E001B070470054004081B0CDF88D
:100CC00000E00348FFF7EEFEDDF800E001B07047FA
:100CD0000050004081B0CDF800E00348FFF7DCFE93
:100CE000DDF800E001B070470048004081B0CDF869
:100CF00000E00348FFF7D6FEDDF800E001B07047E2
:100D00000044004081B0CDF800E00348FFF7CAFE80
:100D1000DDF800E001B070470038014081B0CDF847
:100D200000E00348FFF730FBDDF800E001B070475A
:100D30000038014081B0CDF800E00348FFF7ACFE79
:100D4000DDF800E001B070470038014081B0CDF817
:100D500000E00348FFF718FBDDF800E001B0704742
:100D60000044004081B0CDF800E00348FFF79AFE50
:100D7000DDF800E001B070470048004081B0CDF8D8
:100D800000E00348FFF7E0FEDDF800E001B0704747
:100D90000058004081B0CDF800E00348FFF77CFE2A
:100DA000DDF800E001B070470044004081B0ADF8CC
:100DB00000100146BDF800000B68C3F3C01202B971
:100DC000FAE70A1D106001B07047FFFF81B0CDF84F
:100DD00000E008B413460A46C1B20448FFF7DAFA45
:100DE00001B0DDF800E001B0704700BF00580040DE
:100DF00088B0CDF800E00E46554B98420DD1012445
:100E000064B2544B1C60544C544B1C60544C554BB6
:100E10001C60554C554B1C600FE0554B98420CD153
:100E2000012464B2534B1C60534C4C4B1C60534C1C
:100E30004C4B1C60524C4D4B1C600196029010466E
:100E4000FFF7A2FD0298019E031D1B689CB26FF084
:100E50003F0304EA03039DB203AB01901846FFF77A
:100E60003FFA0198059F059C464BB4FBF3F399B2FA
:100E70009BB245EA0304A4B2031D1C60002403686E
:100E800064F30003036000223F4B9E4212D87300BC
:100E9000B7FBF3F4A4B2042C02D204231C46FFE7F0
:100EA00042EA04039AB200F220044B1C9BB2236076
:100EB00091B23FE0032306FB03F4B7FBF4F31FFA00
:100EC00083F8192306FB03F5B7FBF5F31FFA83F943
:100ED00008FB04F409FB05F33C1BFB1A9C4205D2FA
:100EE00003237343B7FBF3F4A4B206E0192373435F
:100EF000B7FBF3F4A4B244F4804440F6FF7304EA71
:100F0000030313B944F00104FFE744F400439BB228
:100F10001A4392B200F2200540F22C1301FB03F4B5
:100F2000A4B240F2E833B4FBF3F39BB25B1C9BB278
:100F30002B6091B200F21C031960002303600124AE
:100F4000036864F300030360DDF800E008B0704755
:100F500000540040D4034242A50C00007800002059
:100F6000E91300007C0000208D0F000080000020AD
:100F700000580040D80342427D0D00000D140000CF
:100F8000CD0D000040420F00A086010081B0CDF8D9
:100F900000E008B413460A46C1B20448FFF7FAF964
:100FA00001B0DDF800E001B0704700BF0054004020
:100FB00081B0CDF800E08CB21546774B00EA030310
:100FC0001E461846FFF77AFDB4F1FF0F0CD1734BA4
:100FD0009D4203D14FF033333360D9E0422D03D12A
:100FE0004FF044333360D3E04FF6FF739C4214D18B
:100FF0006A4B9D4207D14FF033333360341D4FF0BD
:1010000033332360C4E0422D07D14FF044333360C3
:10101000341D4FF044332360BAE00021002005F076
:1010200001030BB100211DE005F0020333B105F40B
:10103000C0730BB1082100E0042113E005F00403A4
:1010400033B105F020030BB1042100E0002109E0D9
:1010500005F0080333B105F020030BB10C2100E0CB
:101060000821FFE74E4B05EA03030BB1032009E01B
:1010700005F400730BB1022004E005F480630BB1AA
:101080000120FFE705F00C030BB10143FFE704F07B
:10109000FF039BB2002B3BD0376800201FFA84F877
:1010A00032462E4608282CD24FF0010303FA00F4F2
:1010B00008EA0403A34222D185004FF00F03AB409E
:1010C000DB4307EA030401FA05F344EA03031D4680
:1010D00006F48173B3F5817F05D102F214044FF059
:1010E00001038340236006F08203822B05D102F2C4
:1010F00010044FF00103834023602F46FFE7401C9C
:10110000D0E717601FFA88F00F463146164602E016
:101110000F462946A0B2B0F1FF0F39D9331DD3F8DD
:1011200000800022082A30D202F208044FF00103A6
:1011300003FA04F400EA0403A34224D195004FF01B
:101140000F03AB40DB4308EA030807FA05F348EA5C
:10115000030801F48173B3F5817F07D106F214050A
:1011600002F208044FF00103A3402B6001F0820358
:10117000822B07D106F2100502F208044FF001039A
:10118000A3402B60FFE7521CCCE7331DC3F800805F
:10119000DDF800E001B0704700FCFFFF140008001C
:1011A0000008080089B0CDF800E0834698B28C466C
:1011B000BDF824100A9E04ACADF80410ADF8080088
:1011C0002046FFF78DF8BDF80800BDF80410644C08
:1011D000A34512D101256DB2624C2560624D634C6E
:1011E0002560634D634C2560634D644C2560644D00
:1011F000644C2560079C039456E0634CA34512D1D0
:1012000001256DB2614C2560614D584C2560614DE2
:10121000584C2560604D594C2560604D594C2560F7
:10122000069C039440E05E4CA34512D101256DB2AB
:101230005C4C25605C4D4D4C25605C4D4D4C2560F3
:101240005B4D4E4C25605B4D4E4C2560069C0394D7
:101250002AE0594CA34512D101256DB2574C2560A7
:10126000574D424C2560574D424C2560564D434CDE
:101270002560564D434C2560069C039414E0544C65
:10128000A34511D101256DB2524C2560524D374C0A
:101290002560524D374C2560514D384C2560514DDD
:1012A000384C2560069C0394ADF80410ADF8080096
:1012B0003046FFF769FBBDF80800BDF804100BF1DC
:1012C000100500242C600BF110052C680C432C60D9
:1012D0000BF10C0500242C6018B140F4806080B242
:1012E000FFE70BF10C052C6804432C600BF10C0696
:1012F0000125346865F34D3434600BF10C0601258B
:10130000346865F3C30434600BF10C0601253468BE
:1013100065F3820434600BF1140500242C60039DF6
:10132000192465434FEA8C04B5FBF4F76424B7FB3A
:10133000F4F42601350964246C433C1B240104F2B7
:1013400032056424B5FBF4F404F00F0446EA040407
:101350000BF10805A4B22C60DDF800E009B070477D
:101360000038014038034242351500008400002057
:10137000050D000088000020350D00008C000020C5
:101380001D0D00009000002000440040C4034242B4
:101390006D150000ED0C0000950D00004D0D0000D6
:1013A00000480040C803424289150000650D000056
:1013B000D50C00002D0C0000004C0040CC03424234
:1013C00051150000450C0000150C00005D0C0000DC
:1013D00000500040D003424219150000BD0C00002F
:1013E000750C00008D0C000081B0CDF800E008B451
:1013F00013460A46C1B20448FFF798F801B0DDF879
:1014000000E001B0704700BF0054004081B0CDF84B
:1014100000E008B413460A46C1B20448FFF786F854
:1014200001B0DDF800E001B0704700BF0058004097
:1014300081B006B54FEA40024FEA12627F3A44BFDC
:101440004FF0000011E0D2F11F0209D94FEA00214C
:1014500041F00041D14000284CBF4842084604E01A
:1014600000284FF0004058BF401EBDE8064001B0C4
:101470007047FFFF82B0CDF800E040F20004ADF805
:101480000440064C2468A047BDF9041041EA00005E
:1014900000B2DDF800E002B0704700BF9400002009
:1014A00081B0CDF800E04FF0420289B2FFF780FD35
:1014B000DDF800E001B0704781B0CDF800E00A46E9
:1014C00001460348FFF794FCDDF800E001B07047E7
:1014D0000054004081B0CDF800E0044A89B2FFF723
:1014E00067FDDDF800E001B0704700BF14000800A0
:1014F00081B0CDF800E0019D2C4610B408B493B241
:101500008AB201460348FFF74DFE02B0DDF800E065
:1015100001B070470048004081B0CDF800E081B2D2
:101520000348FFF743FCDDF800E001B0704700BF5F
:101530000050004081B0CDF800E081B20348FFF7D1
:1015400035FCDDF800E001B0704700BF0038014015
:1015500081B0CDF800E081B20348FFF727FCDDF849
:1015600000E001B0704700BF004C004081B0CDF8F2
:1015700000E081B20348FFF719FCDDF800E001B09C
:10158000704700BF0044004081B0CDF800E081B258
:101590000348FFF70BFCDDF800E001B0704700BF27
:1015A0000048004081B0CDF800E0019D2C4610B409
:1015B00008B493B28AB201460348FFF7F3FD02B0C4
:1015C000DDF800E001B070470038014082B0CDF88E
:1015D00000E040F20004ADF80440044C2468A04749
:1015E000BDF90400DDF800E002B070479C00002067
:1015F00081B0CDF800E0019D2C4610B408B493B240
:101600008AB201460348FFF7CDFD02B0DDF800E0E5
:1016100001B070470044004082B0CDF800E040F2D5
:101620000004ADF80440054C2468A047BDF904400F
:10163000044320B2DDF800E002B0704798000020BB
:1016400081B010B5904208BF2AE040EA02044FEA98
:101650004404002C08BF23E0440004D1944201D488
:10166000A41C012C1CE04FEA40044FEA1464FF2C38
:101670000AD14FEA42044FEA1464FF2C04D14FEA26
:10168000D274B4EBD0340BE0002A06D4002802DC7C
:101690000024012C04E0904202E0002848BF82426E
:1016A000BDE8104001B0704781B00091014600983C
:1016B0000B461C465A1C15460346421C10461A7817
:1016C000227022780AB12B46F3E7084601B0704732
:1016D00081B044F67F77C0F212077F1EFDD100BFB4
:1016E00000BF00BF00BF00BF01B0704784B0CDF89D
:1016F00000E002908DF80C1001ACAA222270631C4D
:1017000000221A70A31C00221A70FFF7B3FE01AB6F
:101710000A4A127819460023D0B20322FFF77CFF51
:10172000064A127801230299D0B29DF80C20FFF7E7
:101730004DFFDDF800E004B0704700BF5B00002003
:1017400081B04DF2BF47C0F201077F1EFDD100BF3F
:1017500000BF00BF00BF00BF01B0704781B082F082
:1017600000422DE9FA414FEA02244FEA42052D0ECC
:1017700004D1002C18BF4FF000006CE044F000448E
:10178000FF2D5FD04FEA9404002A48BF64424FEA1D
:1017900000214FEA40031B0E05D1002914BF4FF072
:1017A0000000104657E041F00041FF2B4BD04FEABC
:1017B0009101002848BF49425E1B41BF0F462146A8
:1017C0003C46764248BF2B46192E47BF44FA06F7DF
:1017D000C9194FF0000803E0C6F11C0704FA07F826
:1017E000002904BF4FF0000035E046BF49424FF0EA
:1017F00001074FF00007A3F101034900FBD511F0E9
:1018000080040DD001F0200548EA0508803128BF8A
:101810005B1C01F0400458EA040808BF21F4807101
:101820009B1CDCBF4FF0000015E0FF2B0DD221F018
:10183000FF014FEA41014FEA512040EAC35040EA1C
:10184000C77008E010464FEAD0774FEAC777FF200D
:101850004FEAC0503843BDE8FA4101B07047FFFF7E
:1018600081B0FAB590EA02064CBF4FF000464FF047
:1018700000064FEA00214FEA40031B0E12BF41F061
:1018800000414FF000002CE0FF2B26D04FEA02244D
:101890004FEA42052D0E12BF44F000444FF0000005
:1018A0001FE0FF2D19D05B19A1FB0454002C5CBF75
:1018B00064005B1E803424BF5B1C64087E3BDCBF7D
:1018C0004FF000000DE0FF2B07D24FEA142030F458
:1018D000000040EAC350304303E0FF27FF0546EA1B
:1018E0000700BDE8FA4001B07047FFFF81B0002853
:1018F00008BF0FE002B54FF09E0202D4521E400016
:10190000FCD580302CBF521C4000400A40EAC25037
:10191000BDE8024001B0704781B02DE9FA414FEABD
:1019200002244FEA42052D0E04D1002C18BF4FF0BF
:1019300000006CE044F00044FF2D5FD04FEA9404B7
:10194000002A48BF64424FEA00214FEA40031B0EC1
:1019500005D1002914BF4FF00000104657E041F0B8
:101960000041FF2B4BD04FEA9101002848BF49426C
:101970005E1B41BF0F4621463C46764248BF2B4680
:10198000192E47BF44FA06F7C9194FF0000803E0C3
:10199000C6F11C0704FA07F8002904BF4FF0000045
:1019A00035E046BF49424FF001074FF00007A3F171
:1019B00001034900FBD511F080040DD001F0200592
:1019C00048EA0508803128BF5B1C01F0400458EA52
:1019D000040808BF21F480719B1CDCBF4FF000009D
:1019E00015E0FF2B0DD221F0FF014FEA41014FEA34
:1019F000512040EAC35040EAC77008E010464FEA61
:101A0000D0774FEAC777FF204FEAC0503843BDE890
:101A1000FA4101B07047FFFF81B0FAB590EA0206C3
:101A20004CBF4FF000464FF00006010243001B0E72
:101A300012BF41F000414FF000003BE0FF2B35D0DA
:101A40005FEA02245FEA42055FEA156511BF44F0D0
:101A500000444FF0FF4030432CE0FF2D26D05B1BAD
:101A60000020202764084908A14240EB000028BF5D
:101A7000091B7F1E04D0002918BF4900F4D1B840CB
:101A800010F0004F04BF4000B3F1010380302CBFC1
:101A90005B1C40007F33DCBF4FF000000AE0FF2BEF
:101AA00004D2400A40EAC350304303E0FF27FF0559
:101AB00056EA0700BDE8FA4001B0704781B0CDF8A2
:101AC00000E002B5002802D5FFF7B2FC13E04FEAB0
:101AD00040014FEA11617F393CBF4FF000000AE03E
:101AE000D1F11F0105D34FEA002040F00040C8406B
:101AF00001E00020401EBDE80240DDF800E001B03A
:101B00007047FFFF81B00249086001B0704700BF15
:101B1000A801224281B00249086001B0704700BFAD
:101B2000AC01224281B00249086001B0704700BF99
:101B30008801224281B00249086001B0704700BFAD
:101B4000B481224281B00249086001B0704700BFF1
:101B5000B001224281B00249086001B0704700BF65
:101B6000A481224281B00249086001B0704700BFE1
:101B7000A081224281B00249086001B0704700BFD5
:101B80008001214281B00249086001B0704700BF66
:101B9000A881224281B00249086001B0704700BFAD
:101BA0009001214281B0CDF800E001680846044967
:101BB000FFF782FC0020DDF800E001B0704700BFB5
:101BC000402A000081B0CDF800E0016808460449D1
:101BD000FFF772FC0020DDF800E001B0704700BFA5
:101BE000402A000081B0CDF800E0A9E0012905D12C
:101BF00040F210016548FFF753FC04E040F2100189
:101C00006248FFF767FCBBE0012905D140F20401FF
:101C10005F48FFF745FC04E040F204015C48FFF731
:101C200059FCADE0012905D142F200015948FFF706
:101C300037FC04E042F200015648FFF74BFC9FE0FE
:101C4000012905D140F200415148FFF729FC04E089
:101C500040F200414E48FFF73DFC91E0012905D1DB
:101C600040F600014A48FFF71BFC04E040F6000183
:101C70004748FFF72FFC83E0012905D141F200011D
:101C80004348FFF70DFC04E041F200014048FFF734
:101C900021FC75E0012905D140F201013B48FFF725
:101CA000FFFB04E040F201013848FFF713FC67E056
:101CB000012905D140F200413648FFF7F1FB04E06D
:101CC00040F200413348FFF705FC59E0012905D1F6
:101CD00040F200212F48FFF7E3FB04E040F200212F
:101CE0002C48FFF7F7FB4BE0012905D140F200112A
:101CF0002848FFF7D5FB04E040F200112548FFF724
:101D0000E9FB3DE0012905D140F240012248FFF7FF
:101D1000C7FB04E040F240011F48FFF7DBFB2FE068
:101D2000012905D140F280011B48FFF7B9FB04E00F
:101D300040F280011848FFF7CDFB21E0012020E0B0
:101D400000283FF453AF01283FF45EAF02283FF470
:101D500069AF03283FF474AF04283FF47FAF052830
:101D60003FF48AAF06283FF495AF0728A0D0082893
:101D7000ACD00928B8D00A28C4D00B28D0D0DDE7D1
:101D80000020DDF800E001B0704700BF000801400E
:101D90000010014000140140000C014081B0CDF85A
:101DA00000E0A9E0012905D140F220016548FFF7D4
:101DB00077FB04E040F220016248FFF78BFBBBE0B9
:101DC000012905D140F208015F48FFF769FB04E0F3
:101DD00040F208015C48FFF77DFBADE0012905D129
:101DE00044F200015948FFF75BFB04E044F20001B4
:101DF0005648FFF76FFB9FE0012905D140F20041F3
:101E00005148FFF74DFB04E040F200414E48FFF718
:101E100061FB91E0012905D140F600014A48FFF736
:101E20003FFB04E040F600014748FFF753FB83E027
:101E3000012905D141F200014348FFF731FB04E0DD
:101E400041F200014048FFF745FB75E0012905D14B
:101E500041F200013D48FFF723FB04E041F200019D
:101E60003A48FFF737FB67E0012905D140F600014A
:101E70003648FFF715FB04E040F600013348FFF752
:101E800029FB59E0012905D140F240012F48FFF715
:101E900007FB04E040F240012C48FFF71BFB4BE03E
:101EA000012905D140F220012848FFF7F9FA04E0A2
:101EB00040F220012548FFF70DFB3DE0012905D147
:101EC00040F240012248FFF7EBFA04E040F2400103
:101ED0001F48FFF7FFFA2FE0012905D140F28001EA
:101EE0001B48FFF7DDFA04E040F280011848FFF7D5
:101EF000F1FA21E0012020E000283FF453AF01284F
:101F00003FF45EAF02283FF469AF03283FF474AF9B
:101F100004283FF47FAF05283FF48AAF06283FF43A
:101F200095AF0728A0D00828ACD00928B8D00A2837
:101F3000C4D00B28D0D0DDE70020DDF800E001B0F0
:101F4000704700BF0008014000100140001401402C
:101F5000000C014081B0CDF800E0094902B440F224
:101F6000000340F2000240F20001FFF7C1FA01B0A5
:101F7000044A05490A600020DDF800E001B070471E
:101F8000AC2A0000891500006400002081B0CDF863
:101F900000E0094902B440F2000340F2000240F2BE
:101FA0000001FFF725FB01B0044A05490A60002043
:101FB000DDF800E001B07047D42900006D15000085
:101FC0006400002081B0CDF800E00178CCB2A0B26E
:101FD000034C2468A0470020DDF800E001B0704702
:101FE0006400002081B0CDF800E0094902B440F25D
:101FF000000340F2000240F20001FFF7F9FA01B0DD
:10200000044A05490A600020DDF800E001B070478D
:10201000D42900006D1500006400002081B0CDF8C7
:1020200000E0094902B440F2000340F2000240F22D
:102030000001FFF7B7FA01B0044A05490A60002021
:10204000DDF800E001B07047682900003515000098
:102050006400002081B00249086001B0704700BFF1
:102060009881214281B00249086001B0704700BFE9
:102070009481224281B00249086001B0704700BFDC
:102080009881224281B00249086001B0704700BFC8
:10209000AC81224281B00249086001B0704700BFA4
:1020A0009881214281B000F230011C310A68044954
:1020B0000A60011D0A6803490A6001B0704700BF49
:1020C000A0000020A400002081B0026806490A6038
:1020D000011D0A6805490A6000F208010A680449FE
:1020E0000A6001B0704700BF9400002098000020F3
:1020F0009C00002081B00249086001B0704700BF19
:102100009C81214281B00249086001B0704700BF44
:10211000B081224281B00249086001B0704700BF1F
:10212000B881224281B00249086001B0704700BF07
:102130009C81214281B00249086001B0704700BF14
:102140009401214281B00249086001B0704700BF8C
:102150008C01224281B00249086001B0704700BF83
:10216000A801224281B00249086001B0704700BF57
:10217000AC01224281B00249086001B0704700BF43
:10218000B001224281B0CDF800E08B4609E058460C
:10219000FFF708FD0AE05846FFF714FD06E00120AE
:1021A00004E00028F3D00128F5D0F8E7DDF800E0DE
:1021B00001B0704781B0034A1160034A106001B05A
:1021C000704700BF440000204800002082B0CDF8D6
:1021D00000E002460C460020002149B20192019A1B
:1021E000B2F1FF3F06D1714A11462046FFF75CFA73
:1021F0000320D7E0012501AAD21C127802F0800248
:10220000D2B272B101AAD31C1A7882F080021A707D
:102210006A1CD3B22D222270621C1446DEB2A24682
:1022200001E0A246EEB2019A32B9614A1146504627
:10223000FFF73AFA0020B5E0019AB2F1FF4F06D15C
:102240005C4A11465046FFF72FFAF0B2AAE05FFA57
:1022500080F94FFA81F8019A4FF07E50FFF7F0F9BC
:1022600040F2000000DD012048B1019A5248FFF71A
:10227000F7FA0190A8F101084FFA88F8EBE7019A04
:102280004D48FFF7DDF940F2000000DC012048B1C5
:10229000019A4A48FFF7E4FA019008F101084FFA61
:1022A00088F8ECE7019A5200019201AAD21C127838
:1022B0007F3AD0B201AAD31C01221A70019A82403F
:1022C000019201AAD21C127830328AF800200AF159
:1022D0000100B8F1010F06DBB8F1060F03DC05467B
:1022E0005FFA89F103E02E220270451C01210620CD
:1022F0004FFA88F400B301AAD31C00221A70019A85
:102300009300019AD2180192019A5200019201AAF7
:10231000D21C127830322A706D1C51B9621E52B232
:1023200053B222B92E222A706D1C0121FFE75CB244
:10233000FFE7401EC0B2DDE7294660B24A1E1278B0
:10234000302A01D1491EF9E74A1E12782E2A01D1FE
:10235000491EFFE710B365220A70491C002806DAFF
:102360002D220A70491C424250B243B200E043B2EF
:10237000D8B2DAB2092A07D90A22B0FBF2F2D2B2F5
:1023800030320A70491CFFE70A23B0FBF3F203FB6B
:102390001202D2B230320A70481C00E00846002215
:1023A00002700020DDF800E002B070472D00002030
:1023B000310000203300002000002041CDCCCC3D76
:1023C00081B0CDF800E05FFA81F95FFA82FA0FE0A0
:1023D0005FFA8AF15FFA89F0FFF704FC0DE05FFA1B
:1023E0008AF15FFA89F0FFF7D9FC06E0012004E0EA
:1023F0000028EDD00128F2D0F8E7DDF800E001B0C8
:102400007047FFFF81B0CDF800E00020074C246842
:10241000A047FFF75DF90120044C2468A047FFF7AF
:102420008FF9DDF800E001B0704700BFA400002084
:1024300083B0CDF800E0024610460D228DF808204A
:102440000A228DF809201FE0FFF7BCFD23E0027887
:102450002AB10190FFF7B6FD0198401CF7E71AE09A
:1024600002782AB10190FFF7ADFD0198401CF7E713
:1024700002AA1046FFF7A6FD0DF109021046FFF76C
:10248000A1FD08E0062007E00029DDD00129DED00B
:102490000229E5D0F6E70020DDF800E003B0704740
:1024A00081B0CDF800E00446074B1A700846FFF7EC
:1024B0000BFE2046FFF7F6FD0120044C2468A047E0
:1024C000DDF800E001B070475B000020A4000020B0
:1024D00089B0CDF800E08DF8080001A90846042174
:1024E000FFF704F901AA511C0878C0B2010408469C
:1024F000911C0978090289B20843D11C0978084364
:10250000127830490A70304908910968411A0691D9
:102510002E4907910A682E490868FFF71FF90699A6
:1025200006900846FFF7E2F9069AFFF799F9FFF7D8
:10253000C5FA08990A6827490968891A0B46FFF7FE
:10254000D5F9014606911846FFF7D0F90390039A92
:102550000698FFF761FA07990A68FFF7DDF98046E8
:102560001D490A789DF80810914206D01B490A7847
:102570009DF80810914200D005E0194908684246CC
:10258000FFF76EF919E017490A789DF80810914293
:1025900006D015490A789DF80810914200D005E050
:1025A000124908684246FFF75BF906E010490868DF
:1025B0004246FFF755F901460846DDF800E009B04C
:1025C000704700BF5A0000204C0000204800002047
:1025D000440000205000002014000020370000209C
:1025E0005400002058000020590000205C0000200A
:1025F0006000002081B0CDF800E011E00846FFF750
:10260000A9FC16E00846FFF7EDFC12E00846FFF7CC
:1026100005FD0EE00846FFF7B9FC0AE0012008E0DE
:102620000028EBD00128EDD02028EFD03028F1D0C1
:10263000F4E7DDF800E001B07047FFFF81B0154816
:10264000006840F00101134801601349134801601C
:1026500010480168124801400E4801600D480168A9
:102660006FF4802001400B4801600C4801686FF452
:10267000FE00014009480160064801686FF0A05063
:102680000140044801604FF000010648016001B0BC
:10269000704700BF001002400000FFF0041002402D
:1026A000FFFFF6FE2C10024081B01CF8019B0BF8D6
:1026B000019BBBEB0A0FF8D101B0704781B04FF01E
:1026C00000094FF0000CBDEB0A0F04DCBDEB0B0F53
:1026D00001DBD446EA464BF8049BBBEB0A0FFAD168
:1026E000BCEB0A0F05DDE246D9F800B00BF1040B94
:1026F000F1E701B07047FFFF8EB0CDF800E0114860
:102700000078FFF7E5FE01A9FFF760FD0E48012103
:10271000FFF78EFE01A80121FFF78AFE0B48022178
:10272000FFF786FE41F6FF27C0F2B70700BF00BFE4
:102730007F1EFDD100BF00BF00BFDDF800E00EB07E
:10274000704700BF14000020150000202700002063
:1027500081B0CDF800E0182207490848FFF7A0FE35
:10276000FFF750FE06494FF00000FFF723FDDDF8AC
:1027700000E001B0704700BFE42B0000182B000000
:102780000000C841A086010081B0CDF800E0012220
:1027900007210020FFF714FE002201210020FFF78F
:1027A0000FFE0E4801460020FFF7ECFC42F280517C
:1027B0002020FFF71FFF0A480221FFF739FE44F6E9
:1027C0007F77C0F2120700BF00BF7F1EFDD100BFA0
:1027D00000BF00BFDDF800E001B0704784270000B3
:1027E0000000002081B002490248016001B070473A
:1027F000401901006800002081B0FEE701B0704779
:1028000081B000F00FF800F047FAFFF7EBFF00F09F
:10281000F5F9FFF7B9FFFFF79BFFFFF76DFFFCE747
:10282000FEE7FFFF81B0CDF800E0464A464B474C3B
:1028300047494BF68030814206D94648006840F04F
:1028400002014448016011E045F6C050814206D9BA
:102850004048006840F001013E48016006E03D4804
:1028600001686FF0070001403A480160FFF7E6FE9B
:102870003948036039480460394802EA00013948A0
:10288000016002F0010040B119463648006800F0CE
:102890000200002800D1F8E700E0194602F4803079
:1028A00040B10B462F48006800F40030002800D1EA
:1028B000F8E700E00B4602F0805068B12948006854
:1028C00040F08051274801602648006800F0005021
:1028D000002800D1F8E7FFE702F0806078B12148D6
:1028E000006840F080611F48016011461A461D488B
:1028F000006800F00060002800D1F8E701E0114610
:102900001A4601F0807070B11648006840F080717E
:102910001448016011461348006800F0007000B9C7
:10292000F9E70A46FFE70C48006800F00C01900048
:1029300000F00C00814200D0F5E7DDF800E001B0C6
:10294000704700BF8100010502841D00440601009C
:102950004019010000200240041002402C100240E7
:10296000FFFF0F0000100240090000000A000000F5
:10297000FFFFFFFF0000000000000000000000005B
:102980000000000000000000000000000000000047
:102990000000000000000000000000001808000017
:1029A000180000000000000000000000000000000F
:1029B0000000000000000000000000000000000017
:1029C0000000000000000000000000000000000007
:1029D000040000003500000036000000FFFFFFFF8C
:1029E00000000000000000000000000000000000E7
:1029F00000000000000000000000000000000000D7
:102A0000000000000000000018080000180000008E
:102A100000000000000000000000000000000000B6
:102A200000000000000000000000000000000000A6
:102A30000000000000000000000000000800000886
:102A40001600000017000000FFFFFFFF000000005D
:102A50000000000000000000000000000000000076
:102A60000000000000000000000000000000000066
:102A700000000000280800002808000000000000F6
:102A80000000000000000000000000000000000046
:102A90000000000000000000000000000000000036
:102AA00000000000000000000200000038000000EC
:102AB00039000000FFFFFFFF0000000000000000E1
:102AC0000000000000000000000000000000000006
:102AD00000000000000000000000000000000000F6
:102AE00018080000180000000000000000000000AE
:102AF00000000000000000000000000000000000D6
:102B000000000000000000000000000000000000C5
:102B10000000000030001408951B0000251B000079
:102B2000351B0000051B0000151B0000451B0000A5
:102B3000751B0000851B0000551B0000651B000075
:102B40005520000025210000FFFFFFFFFFFFFFFFD2
:102B5000FFFFFFFFFFFFFFFFFFFFFFFFFFFFFFFF85
:102B6000FFFFFFFFFFFFFFFFFFFFFFFFFFFFFFFF75
:102B7000FFFFFFFFFFFFFFFF2D2D2D205379737403
:102B8000656D20496E6974202D2D2D000120507235
:102B90006573737572652064617461203A2000204A
:102BA0006D426172004E614E003000494E46000297
:102BB0000000000000000000000000000000000015
:102BC0000000C8419A9919006666E60028E5894226
:102BD00004050000000001020304010203040607CB
:102BE0000809FFFFA50C00008D0F0000E91300008D
:102BF0003DDC4E42DAA1DC400204060800B5DFF8F5
:102C000024B0DFF824A0DFF824C0FFF74DFDDFF883
:102C100020B0DFF820A0DFF820C0FFF745FD00BDA1
:102C2000704700BF000000205A000020782B0000F1
:102C30005C00002064000020F02B0000FFFFFFFF7D
:102C4000FFFFFFFFFFFFFFFFFFFFFFFFFFFFFFFF94
:102C5000FFFFFFFFFFFFFFFFFFFFFFFFFFFFFFFF84
:102C6000FFFFFFFFFFFFFFFFFFFFFFFFFFFFFFFF74
:102C7000FFFFFFFFFFFFFFFFFFFFFFFFFFFFFFFF64
:102C8000FFFFFFFFFFFFFFFFFFFFFFFFFFFFFFFF54
:102C9000FFFFFFFFFFFFFFFF00B5DFF810B0DFF819
:102CA00010A0FFF70BFD00BD704700BF0000002023
:102CB000A8000020FFFFFFFFFFFFFFFFFFFFFFFF58
:00000001FF
